{
  "_format": "hh3-artifact-1",
  "contractName": "BatchAnchor",
  "sourceName": "contracts/BatchAnchor.sol",
  "abi": [
    {
      "anonymous": false,
      "inputs": [
        {
          "indexed": false,
          "internalType": "string",
          "name": "batchId",
          "type": "string"
        },
        {
          "indexed": false,
          "internalType": "bytes32",
          "name": "hash",
          "type": "bytes32"
        },
        {
          "indexed": false,
          "internalType": "uint256",
          "name": "timestamp",
          "type": "uint256"
        },
        {
          "indexed": true,
          "internalType": "address",
          "name": "anchoredBy",
          "type": "address"
        }
      ],
      "name": "BatchAnchored",
      "type": "event"
    },
    {
      "inputs": [
        {
          "internalType": "string",
          "name": "batchId",
          "type": "string"
        },
        {
          "internalType": "bytes32",
          "name": "hash",
          "type": "bytes32"
        }
      ],
      "name": "anchorBatch",
      "outputs": [],
      "stateMutability": "nonpayable",
      "type": "function"
    },
    {
      "inputs": [
        {
          "internalType": "string",
          "name": "batchId",
          "type": "string"
        },
        {
          "internalType": "bytes32",
          "name": "hash",
          "type": "bytes32"
        }
      ],
      "name": "verifyBatch",
      "outputs": [
        {
          "internalType": "bool",
          "name": "valid",
          "type": "bool"
        },
        {
          "internalType": "uint256",
          "name": "timestamp",
          "type": "uint256"
        },
        {
          "internalType": "address",
          "name": "anchoredBy",
          "type": "address"
        }
      ],
      "stateMutability": "view",
      "type": "function"
    }
  ],
  "bytecode": "0x6080604052348015600e575f5ffd5b5061037a8061001c5f395ff3fe608060405234801561000f575f5ffd5b5060043610610034575f3560e01c80631f0d829e14610038578063da55b7041461004d575b5f5ffd5b61004b610046366004610236565b61008a565b005b61006061005b366004610236565b61019f565b60408051931515845260208401929092526001600160a01b03169082015260600160405180910390f35b5f8260405161009991906102eb565b9081526020016040518091039020600101545f146100f65760405162461bcd60e51b815260206004820152601660248201527510985d18da08185b1c9958591e48185b98da1bdc995960521b604482015260640160405180910390fd5b60408051606081018252828152426020820152338183015290515f9061011d9085906102eb565b908152604080516020928190038301812084518155928401516001840155920151600290910180546001600160a01b0319166001600160a01b0390921691909117905533907f15ec0aec35475b8f36abd1841bd4f30599ea189642cf447a04bccbe1932567c39061019390859085904290610301565b60405180910390a25050565b5f5f5f5f5f866040516101b291906102eb565b9081526040805160209281900383018120606082018352805482526001810154938201849052600201546001600160a01b03169181019190915291505f03610203575f5f5f9350935093505061021b565b84815f01511481602001518260400151935093509350505b9250925092565b634e487b7160e01b5f52604160045260245ffd5b5f5f60408385031215610247575f5ffd5b823567ffffffffffffffff81111561025d575f5ffd5b8301601f8101851361026d575f5ffd5b803567ffffffffffffffff81111561028757610287610222565b604051601f8201601f19908116603f0116810167ffffffffffffffff811182821017156102b6576102b6610222565b6040528181528282016020018710156102cd575f5ffd5b816020840160208301375f6020928201830152969401359450505050565b5f82518060208501845e5f920191825250919050565b606081525f84518060608401528060208701608085015e5f608082850101526080601f19601f83011684010191505083602083015282604083015294935050505056fea2646970667358221220d11498458bacf96046a48196fa58f63e3ec3f9cb4d47ed51f836a2d691bd20d364736f6c634300081c0033",
  "linkReferences": {},
  "deployedLinkReferences": {},
  "immutableReferences": {},
  "inputSourceName": "project/contracts/BatchAnchor.sol",
  "buildInfoId": "solc-0_8_28-ef6338a49c4c2b605fe090d246d212b2df7d3c4e"
}